:100000000C9434000C9451000C9451000C94510049
:100010000C9451000C9451000C9451000C9451001C
:100020000C9451000C9451000C9451000C9451000C
:100030000C9451000C9451000C9451000C945100FC
:100040000C9451000C9451000C9451000C945100EC
:100050000C9451000C9451000C9451000C945100DC
:100060000C9451000C94510011241FBECFEFD8E026
:10007000DEBFCDBF11E0A0E0B1E0E0EBFAE002C0EE
:1000800005900D92A631B107D9F721E0A6E1B1E0C4
:1000900001C01D92A731B207E1F70E94DC000C9469
:1000A00056050C9400001092B90088E48093B800C3
:1000B000089594EA9093BC00ECEBF0E090819923D2
:1000C000ECF79091B900987F983011F09031A1F43D
:1000D0008093BB0084E88093BC00ECEBF0E080816F
:1000E0008823ECF79091B900987F983139F081E03E
:1000F000903429F480E0089581E0089580E0089527
:10010000CF93DF93ECEBF0E024EAA9EBB0E0CBEB8C
:10011000D0E034E844E9208390819923ECF79C9166
:10012000987F983011F09031B1F7888330839081B7
:100130009923ECF79C91987F903211F0983529F42F
:100140004083908194FDFDCFE6CFDF91CF9108955C
:100150000E945900089584E98093BC00ECEBF0E024
:10016000808184FDFDCF08958093BB0084E8809357
:10017000BC00ECEBF0E080818823ECF79091B900B3
:10018000987F81E0983209F480E0089584EC8093B0
:10019000BC00ECEBF0E080818823ECF78091BB00A1
:1001A000089584E88093BC00ECEBF0E08081882324
:1001B000ECF78091BB000895CF93DF93CDB7DEB706
:1001C000E8970FB6F894DEBF0FBECDBF0E943B028A
:1001D0000E94450119821A821B821C821D821E8286
:1001E0000F2EF7E3EF2EF02D0BE325E04CE164E05A
:1001F00084E10E944C010F2EF0E0AF2EF1E0BF2E03
:10020000F02D6E0127E0C20ED11CCE0106967C01B6
:100210008E010B5F1F4F9E012C5F3F4FAE014D5F64
:100220005F4FBE016E5F7F4F05970E94C7018E81B1
:100230001F928F938D811F928F938C811F928F932A
:100240008B811F928F938A811F928F9389811F9236
:100250008F93BF92AF92DF92CF920E946C02C60141
:100260000E944D0282E191E00E944D029FEF23ED3A
:1002700080E3915020408040E1F700C000000FB6BD
:10028000F894DEBF0FBECDBFC0CF0E94530083E005
:100290008A95F1F700000895DF92EF92FF920F9395
:1002A0001F93CF93DF93D82F162FF42ED22E80EDED
:1002B0000E94800080E00E94B400CDECEC9E812D75
:1002C0001124869586958695982F990F890F880F0A
:1002D0008E0D0E94B4000C9F812D11248695869569
:1002E0008695982F990F890F880F800F0E94B40070
:1002F000DC9E812D1124869586958695982F990FE1
:10030000890F880F8D0D0E94B400809116018C9F7B
:10031000912D1124969596959695292F220F920F3F
:10032000990F890F0E94B400FC9E812D112486959F
:1003300086958695982F990F890F880F8F0D0E94AB
:10034000B4001C9F812D1124869586958695982F43
:10035000990F890F880F810F0E94B400DC9FC12D77
:100360001124C695C695C6958C2F880FC80F8C2F63
:10037000880F8D0F0E94B4000E94AB0081E0DF91D6
:10038000CF911F910F91FF90EF90DF9008958F9282
:100390009F92AF92BF92CF92DF92EF92FF920F9314
:1003A0001F93CF93DF93EC016B015A01490180ED5C
:1003B0000E94800080E00E94B4000E94AB0081EDAA
:1003C0000E94A8000E94C6008F77982F92959F7078
:1003D000292F220F920F990F891BF70180830E940A
:1003E000C600982F92959F70292F220F920F990F78
:1003F000891BF80180830E94C600982F92959F70F8
:10040000292F220F920F990F891BF40180830E94DC
:10041000C6000E94C600982F92959F70292F220F28
:10042000920F990F891BF50180830E94C600982FB7
:1004300092959F70292F220F920F990F891BF60119
:1004400080830E94D100982F92959F70292F220FB0
:10045000920F990F891B88830E94AB00DF91CF9187
:100460001F910F91FF90EF90DF90CF90BF90AF90D2
:100470009F908F90089587E68093C40088E18093D1
:10048000C10086E08093C2000895E0ECF0E0908126
:1004900095FFFDCF8093C60008950F931F93CF93D0
:1004A000DF93FC01808181110AC011C089918823EA
:1004B00071F00E9445020C171D07C1F708C08F019B
:1004C0000E944502E801219601501F4FEFCFDF91B6
:1004D000CF911F910F910895AEE0B0E0E2E7F2E016
:1004E0000C942D050D891E8986E08C831A8309835F
:1004F0008FEF9FE79E838D83AE01475E5F4F6F89CD
:10050000788DCE0101960E948E02EF81F885E00F72
:10051000F11F10822E96E4E00C944905ABE0B0E0A8
:10052000E4E9F2E00C941F056C017B018A01FC01F7
:1005300017821682838181FFCCC1CE0101963C01D6
:10054000F6019381F70193FD859193FF81917F01DE
:10055000882309F4BAC1853239F493FD859193FF5C
:1005600081917F01853229F4B60190E00E948504D3
:10057000E7CF912C212C312CFFE1F315D8F08B32F1
:1005800079F038F4803279F08332A1F4232D2061A0
:100590001DC08D3261F0803369F4232D216016C0B7
:1005A000832D8260382EE32DE4603E2E2AC0F32D89
:1005B000F8601DC037FC2DC020ED280F2A3040F018
:1005C0008E32B9F436FC81C1232D2064322E19C03D
:1005D00036FE06C08AE0989E200D1124922E11C08E
:1005E000EAE02E9E200D1124222EF32DF0623F2EE4
:1005F00008C08C3621F4832D8068382E02C08836DE
:1006000041F4F70193FD859193FF81917F01811161
:10061000B3CF982F9F7D9554933028F40C5F1F4FD4
:100620009FE399830DC0833631F0833771F08335B2
:1006300009F059C021C0F801808189830E5F1F4FE6
:1006400088248394912C530113C02801F2E04F0EAB
:10065000511CF801A080B18036FE03C0692D70E006
:1006600002C06FEF7FEFC5010E947A044C01820146
:10067000F32DFF773F2E16C0280122E0420E511CB9
:10068000F801A080B18036FE03C0692D70E002C081
:100690006FEF7FEFC5010E946F044C01F32DF068EE
:1006A0003F2E820133FC1BC0822D90E088169906F4
:1006B000B0F4B60180E290E00E9485042A94F4CF61
:1006C000F50137FC859137FE81915F01B60190E01D
:1006D0000E94850421102A9421E0821A9108811435
:1006E000910471F7E8C0843611F0893641F5F801BC
:1006F00037FE07C060817181828193810C5F1F4F3B
:1007000008C060817181072E000C880B990B0E5F69
:100710001F4FF32DFF763F2E97FF09C090958095D0
:10072000709561957F4F8F4F9F4FF0683F2E2AE065
:1007300030E0A3010E94C104882E861845C0853789
:1007400031F4232D2F7EB22E2AE030E025C0932DE8
:10075000997FB92E8F36C1F018F4883579F0B5C07D
:10076000803719F0883721F0B0C0E92FE061BE2E44
:10077000B4FE0DC0FB2DF460BF2E09C034FE0AC0CC
:10078000292F2660B22E06C028E030E005C020E107
:1007900030E002C020E132E0F801B7FE07C060811E
:1007A0007181828193810C5F1F4F06C060817181CE
:1007B00080E090E00E5F1F4FA3010E94C104882ECD
:1007C0008618FB2DFF773F2E36FE0DC0232D2E7F82
:1007D000A22E891458F434FE0BC032FC09C0832DBC
:1007E0008E7EA82E05C0B82CA32C03C0B82C01C047
:1007F000B92CA4FE0FC0FE01E80DF11D80818033ED
:1008000021F49A2D997EA92E09C0A2FE06C0B394A8
:10081000B39404C08A2D867809F0B394A3FC11C068
:10082000A0FE06C0B21488F4280C922C9B180EC0AF
:10083000B21460F4B60180E290E00E948504B394A3
:10084000F7CFB21418F42B1802C0982C212CA4FE58
:1008500010C0B60180E390E00E948504A2FE17C09C
:10086000A1FC03C088E790E002C088E590E0B601F3
:100870000CC08A2D867859F0A1FE02C08BE201C01F
:1008800080E2A7FC8DE2B60190E00E948504891405
:1008900038F4B60180E390E00E9485049A94F7CF83
:1008A0008A94F301E80DF11D8081B60190E00E9469
:1008B00085048110F5CF222009F442CEB60180E2F2
:1008C00090E00E9485042A94F6CFF60186819781F4
:1008D00002C08FEF9FEF2B96E2E10C943B05FC01E9
:1008E0000590615070400110D8F7809590958E0F5B
:1008F0009F1F0895FC016150704001900110D8F7CE
:10090000809590958E0F9F1F08950F931F93CF93FF
:10091000DF93FB01238121FD03C08FEF9FEF2CC0EC
:1009200022FF16C046815781248135814217530723
:1009300044F4A081B1819D012F5F3F4F318320831B
:100940008C93268137812F5F3F4F3783268314C0D6
:100950008B01EC01FB010084F185E02D0995892BC9
:10096000E1F6D80116968D919C91179701961796EE
:100970009C938E931697CE01DF91CF911F910F918B
:100980000895FA01AA27283051F1203181F1E89425
:100990006F936E7F6E5F7F4F8F4F9F4FAF4FB1E072
:1009A0003ED0B4E03CD0670F781F891F9A1FA11D6D
:1009B000680F791F8A1F911DA11D6A0F711D811D6E
:1009C000911DA11D20D009F468943F912AE0269F33
:1009D00011243019305D3193DEF6CF010895462F92
:1009E0004770405D4193B3E00FD0C9F7F6CF462F73
:1009F0004F70405D4A3318F0495D31FD40524193DC
:100A000002D0A9F7EACFB4E0A69597958795779598
:100A10006795BA95C9F700976105710508959B011F
:100A2000AC010A2E06945795479537952795BA95A8
:100A3000C9F7620F731F841F951FA01D08952F9281
:100A40003F924F925F926F927F928F929F92AF925E
:100A5000BF92CF92DF92EF92FF920F931F93CF93AB
:100A6000DF93CDB7DEB7CA1BDB0B0FB6F894DEBF42
:100A70000FBECDBF09942A88398848885F846E8468
:100A80007D848C849B84AA84B984C884DF80EE80B2
:100A9000FD800C811B81AA81B981CE0FD11D0FB6BB
:100AA000F894DEBF0FBECDBFED010895F894FFCFDF
:100AB00025642F25642F25642025643A25643A2572
:060AC00064000D0A0000B5
:00000001FF
